:100000000C9434000C9446000C9446000C9446006A
:100010000C9446000C9446000C9446000C94460048
:100020000C9446000C9446000C9446000C94460038
:100030000C9446000C9446000C9446000C94460028
:100040000C9446000C9446000C9446000C94460018
:100050000C9446000C9448000C9446000C94460006
:100060000C9446000C94460011241FBECFEFD8E03C
:10007000DEBFCDBF21E0A0E0B1E001C01D92A23003
:10008000B207E1F70E9467000C948C000C9400000A
:100090001F920F920FB60F9211248F939F93EF939D
:1000A000FF93809178009091790090930101809363
:1000B0000001EAE7F0E0808180648083FF91EF91A6
:1000C0009F918F910F900FBE0F901F90189517B8AA
:1000D00018B8259A80917C00806480937C00809180
:1000E0007A008F6B80937A0010927B0080917A0067
:1000F000806880937A0080917A00806480937A008F
:10010000789480910001909101018138910514F05B
:0C0110002D9AF7CF2D98F5CFF894FFCF73
:00000001FF
