:100000000C9434000C9451000C9451000C94510049
:100010000C9451000C9451000C9451000C9451001C
:100020000C9451000C9451000C9451000C9451000C
:100030000C9451000C9451000C9451000C945100FC
:100040000C9451000C9451000C9451000C945100EC
:100050000C9451000C9470000C9451000C945100BD
:100060000C9451000C94510011241FBECFEFD8E026
:10007000DEBFCDBF11E0A0E0B1E0ECEFF7E002C0E1
:1000800005900D92A033B107D9F721E0A0E3B1E0CC
:1000900001C01D92A533B207E1F70E94CA000C947B
:1000A000FC030C94000080913001ECE7F0E09081BB
:1000B0008064892B8083EAE7F0E080818F61808310
:1000C0008081806880838081806480830895E82FA8
:1000D000F0E0EE0FFF1FEF5CFE4F808191810895ED
:1000E0001F920F920FB60F9211248F939F93EF934D
:1000F000FF93E0913001F0E08091780090917900D9
:10010000EE0FFF1FEF5CFE4F9183808380913001E3
:1001100090E00196817099278093300180913001A1
:10012000806480937C00EAE7F0E0808180648083D3
:10013000FF91EF919F918F910F900FBE0F901F90A5
:10014000189587E690E09093C5008093C400E0EC9A
:10015000F0E080818D7F8083E2ECF0E0808186603A
:100160008083E1ECF0E08081886080830895909145
:10017000C00095FFFCCF8093C6000895CF93DF9316
:10018000EC018991811103C0DF91CF9108950E9404
:10019000B700F7CFCF93DF93CDB7DEB7E2970FB6B7
:1001A000F894DEBF0FBECDBF17B818B8259A529A83
:1001B0000E9453000E94A100789480E0A82E81E064
:1001C000B82E8E010F5F1F4F91E2C92E91E0D92EFC
:1001D0008091310190913201E0903301F09034012F
:1001E000853F21E0920760F12D9A25EFE21621E08C
:1001F000F20640F15A9A9F938F93BF92AF921F934A
:100200000F930E942401C8010E94BE00FF92EF924A
:10021000DF92CF921F930F930E942401C8010E9486
:10022000BE008FEF93EC29E0815090402040E1F731
:1002300000C000000FB6F894DEBF0FBECDBFC8CF20
:100240002D98D3CF5A98D7CFAEE0B0E0EAE2F1E0F4
:100250000C94D3030D891E8986E08C831A8309834D
:100260008FEF9FE79E838D83AE01475E5F4F6F895F
:10027000788DCE0101960E9447012F813885020FAB
:10028000131FF80110822E96E4E00C94EF03ABE00C
:10029000B0E0EDE4F1E00C94C5037C013B018A0180
:1002A000FC0117821682838181FFC8C1CE010196AD
:1002B0005C01F7019381F30193FD859193FF819197
:1002C0003F01882309F453C1853239F493FD8591A8
:1002D00093FF81913F01853229F4B70190E00E949C
:1002E0003703E7CF912C212C312CFFE1F31538F0A7
:1002F0008B3211F190F4803209F1833229F137FC0D
:100300003CC020ED280F2A3050F536FE20C08AE090
:10031000989E200D1124922E06C08D3291F08033CC
:1003200071F7689430F8F30193FD859193FF819103
:100330003F018111DACF21C0689431F8689432F816
:10034000F2CF689433F8EFCF689434F8ECCFEAE05A
:100350002E9E200D1124222E689435F8E4CF8E3283
:1003600029F436FC04C1689436F8DDCF8C3619F4D4
:10037000689437F8D8CF8836B1F2982F9F7D95547E
:100380009330E0F08336A1F18337C1F1833509F072
:1003900063C02801F2E04F0E511CF801C080D180EB
:1003A000692D70E036FC02C06FEF7FEFC6010E943E
:1003B00021034C01689437F882010AC00C5F1F4F7B
:1003C000FFE3F98388248394912C6501E89437F83E
:1003D00033FE2DC0522C8114910471F5552009F47F
:1003E00068CFB70180E290E00E9437035A94F6CFBD
:1003F000F801808189830E5F1F4FE4CF2801F2E06E
:100400004F0E511CF801C080D180692D70E036FC80
:1004100002C06FEF7FEFC6010E942C034C018201E6
:10042000D5CFB70180E290E00E9437032A942814C8
:10043000190409F0B0F7CECFF60137FC859137FEED
:1004400081916F01B70190E00E94370351105A94D7
:10045000F1E08F1A9108BFCF843619F0893609F080
:1004600077C0F80137FE6BC0608171818281938112
:100470000C5F1F4FF32DFF763F2E97FF09C090951D
:100480008095709561957F4F8F4F9F4F689437F897
:100490002AE030E0A5010E946703C82ECA188C2C00
:1004A000432C36FE0CC0E89440F8C91440F434FEE6
:1004B00005C032FC03C0F32DFE7E4F2E892C44FE76
:1004C00095C0FE01EC0DF11D8081803309F087C0DD
:1004D000242D297E422E842D8870582E43FC95C0F1
:1004E00040FE8FC09C2C821418F42C0C922C98186F
:1004F00044FE91C0B70180E390E00E94370342FEC2
:1005000009C088E790E041FE02C088E590E0B701AD
:100510000E943703C91408F48AC0CA94D12C9FEFF3
:10052000C91AD90ACA0CDB1CF60182916F01B70106
:1005300090E00E943703AC14BD04B1F74FCF608147
:100540007181072E000C880B990B0E5F1F4F92CF05
:10055000D32CE894D4F82AE030E0853739F1232D04
:10056000297FD22E8F3601F148F48835A9F0F701A2
:10057000868197812B96E2E10C94E103803749F064
:100580008837A9F7D4FE02C06894D2F820E130E0A1
:100590000DC06894D4F8F6CF34FE03C0822F866075
:1005A000D82E20E132E002C028E030E0F801D7FE8A
:1005B0000FC060817181828193810C5F1F4FA50103
:1005C0000E946703C82ECA183D2CE89437F867CFFD
:1005D0006081718190E080E00E5F1F4FF0CF42FCA0
:1005E00002C0839478CF8394839475CF842D8678CA
:1005F00009F471CFF6CFB70180E290E00E94370393
:1006000083948214C0F3512C73CF522C5818821447
:1006100008F46ECFF8CF842D867809F47BCF8BE277
:1006200041FE80E247FC8DE2B70190E071CFB70157
:1006300080E390E00E9437039A946CCF8FEF9FEF96
:1006400099CFFC010590615070400110D8F780955A
:1006500090958E0F9F1F0895FC016150704001908E
:100660000110D8F7809590958E0F9F1F08950F93D6
:100670001F93CF93DF93182F092FEB018B8181FDFF
:1006800009C01FEF0FEF812F902FDF91CF911F91A6
:100690000F91089582FF14C02E813F818C819D812E
:1006A000281739073CF4E881F981CF010196998335
:1006B000888310838E819F8101969F838E83E3CFF1
:1006C000E885F985812F0995892BA1F3DACFFA0105
:1006D000AA27283051F1203181F1E8946F936E7F81
:1006E0006E5F7F4F8F4F9F4FAF4FB1E03ED0B4E072
:1006F0003CD0670F781F891F9A1FA11D680F791FB3
:100700008A1F911DA11D6A0F711D811D911DA11DC3
:1007100020D009F468943F912AE0269F11243019D3
:10072000305D3193DEF6CF010895462F4770405D6E
:100730004193B3E00FD0C9F7F6CF462F4F70405D1D
:100740004A3318F0495D31FD4052419302D0A9F778
:10075000EACFB4E0A6959795879577956795BA9572
:10076000C9F700976105710508959B01AC010A2E38
:1007700006945795479537952795BA95C9F7620F0F
:10078000731F841F951FA01D08952F923F924F92B3
:100790005F926F927F928F929F92AF92BF92CF9211
:1007A000DF92EF92FF920F931F93CF93DF93CDB71A
:1007B000DEB7CA1BDB0B0FB6F894DEBF0FBECDBF92
:1007C00009942A88398848885F846E847D848C8463
:1007D0009B84AA84B984C884DF80EE80FD800C816C
:1007E0001B81AA81B981CE0FD11D0FB6F894DEBF4F
:0C07F0000FBECDBFED010895F894FFCFBF
:1007FC004144435F4348303A2025640A0D2D2D2D8A
:10080C002D2D2D2D2D2D2D2D2D2D2D2D2D2D2D0A2F
:10081C00004144435F4348313A2025640A0D0000EF
:00000001FF
