:100000000C9434000C9451000C9451000C94510049
:100010000C9451000C9451000C9451000C9451001C
:100020000C9451000C9451000C9451000C9451000C
:100030000C9451000C9451000C9451000C945100FC
:100040000C9451000C9451000C949F000C9451009E
:100050000C9451000C9451000C9451000C945100DC
:100060000C9451000C94510011241FBECFEFD8E026
:10007000DEBFCDBF11E0A0E0B1E0E6EDF1E002C0EF
:1000800005900D92A231B107D9F721E0A2E1B1E0CC
:1000900001C01D92A937B207E1F70E94D7000C9466
:1000A000E9000C94000087E690E09093C5008093EF
:1000B000C400E0ECF0E080818D7F8083E2ECF0E032
:1000C000808186608083E1ECF0E0808180688083BD
:1000D00080818861808308959091C00095FFFCCF56
:1000E0008093C6000895CF93DF93EC01899181112D
:1000F00003C0DF91CF9108950E946C00F7CFAC014F
:10010000809113018823B9F0E09114010E2E000CA8
:10011000FF0BE95BFE4F108290E0E92FF0E0DF017A
:10012000A95BBE4F2C91E40FF51F211105C0108271
:100130001092130181E0089520839F5FEECF1F92FC
:100140000F920FB60F9211248F939F93EF93FF930B
:100150009091C60080911401E82F082E000CFF0B2F
:10016000E95BFE4F90839E3571F41092140181E09B
:1001700080931201FF91EF919F918F910F900FBE8D
:100180000F901F9018959F3231F09091120181339A
:1001900044F0992379F381E08093130110921201C6
:1001A000E9CF992339F38F5F80931401E3CF0E9445
:1001B000530080E091E00E947300789485E191E023
:1001C0000E947F008823D1F385E191E00E947300B3
:0601D000F5CFF894FFCF0B
:1001D60048656C6C6F20576F726C642121210A0D83
:0201E600000017
:00000001FF
