:100000000C9434000C9446000C9446000C9446006A
:100010000C9446000C9446000C9446000C94460048
:100020000C9446000C9446000C9446000C945F001F
:100030000C9446000C9446000C9446000C94460028
:100040000C9446000C9446000C9446000C94460018
:100050000C9446000C9446000C9446000C94460008
:100060000C9446000C94460011241FBECFEFD8E03C
:10007000DEBFCDBF21E0A0E0B1E001C01D92A23003
:10008000B207E1F70E9475000C94BA000C940000CE
:10009000219AE0E8F0E08081836C8083E1E8F0E081
:1000A00080818160808384E690E0909389008093D2
:1000B0008800EFE6F0E080818260808308951F92DF
:1000C0000F920FB60F9211248F939F93809100018E
:1000D0009091010190938900809388009F918F9166
:1000E0000F900FBE0F901F901895219A0E94480004
:1000F000789428EE33E080910001909101018C59B1
:100100009F4FB9010E9492009093010180930001DA
:100110004FEF89E698E1415080409040E1F700C000
:100120000000E9CF97FB072E16F4009407D077FD67
:1001300009D00E94A60007FC05D03EF49095819559
:100140009F4F0895709561957F4F0895AA1BBB1B23
:1001500051E107C0AA1FBB1FA617B70710F0A61BC7
:10016000B70B881F991F5A95A9F780959095BC01E8
:08017000CD010895F894FFCFC2
:00000001FF
