:100000000C9434000C9446000C9446000C9446006A
:100010000C9446000C9446000C9446000C94460048
:100020000C9446000C9446000C9446000C948100FD
:100030000C9446000C9446000C9446000C94460028
:100040000C9446000C9446000C9446000C94460018
:100050000C9446000C9446000C9446000C94460008
:100060000C9446000C94460011241FBECFEFD8E03C
:10007000DEBFCDBF21E0A0E0B1E001C01D92A13004
:10008000B207E1F70E9490000C949D000C940000D0
:1000900010928000E1E8F0E0808188608083EFE6E4
:1000A000F0E0808182608083089510920001880FC3
:1000B000991F9093890080938800809181008260CD
:1000C00080938100809100018823E1F38091810079
:1000D0008D7F8093810008950F931F93CF93DF93BB
:1000E0008C01D0E0C0E0C017D1072CF0DF91CF9198
:1000F0001F910F91089588EE93E00E94550021967C
:10010000F2CF1F920F920FB60F9211248F9381E0BE
:10011000809300018F910F900FBE0F901F90189544
:10012000259A0E9448007894C0E285B18C2785B951
:0E01300088EE93E00E946C00F8CFF894FFCFA9
:00000001FF
